:10100000C07F0020B1D101001F8D020085D10100F9
:1010100085D1010085D1010085D1010000000000CB
:10102000000000000000000000000000ADC9010049
:1010300085D101000000000059C9010085D10100DF
:101040005DCA01009B9702005DCA01005DCA0100F4
:101050005DCA01005DCA01005DCA01005DCA0100F0
:10106000499702005DCA01005DCA01008197020034
:101070005DCA01005DCA01005DCA01005DCA0100D0
:101080005DCA01005DCA01005DCA01005DCA0100C0
:101090005DCA01005DCA01005DCA01005DCA0100B0
:1010A0005DCA01005DCA01005DCA01005DCA0100A0
:1010B0005DCA01005DCA01005DCA01005DCA010090
:1010C0005DCA01005DCA01005DCA01005DCA010080
:1010D0005DCA01005DCA01005DCA01005DCA010070
:1010E0005DCA01005DCA01005DCA01005DCA010060
:1010F0005DCA01005DCA01005DCA01005DCA010050
:1011000053B94AB9002908BF00281CBF4FF0FF316E
:101110004FF0FF3000F00CB8ADF1080C6DE904CED3
:1011200012F00CFFDDF804E0DDE9022304B07047A3
:10113000704700BF01480078704700002800002079
:1011400070B5174C6078002823D10120607013F02F
:1011500090F96FF0270528B913F0C1F910B913F011
:10116000C8F920B10F486060A570082010E013F0A6
:1011700055F940B913F05CF928B913F070F910B9BA
:1011800013F081F930B1074831306060A570042058
:10119000E07070BD4FF48F71742003F0C1FB00004C
:1011A000280000204A8F0100084991F9032090424D
:1011B00003DA91F90220904201DC10467047496839
:1011C000801A085C02490856704700002800002079
:1011D0003C8F01002DE9F0411C4690460D46064625
:1011E0006FF01507042804D81CB112F0F7FFA842CD
:1011F00002D83846BDE8F0810548424650F826003E
:1012000018B14057824200DD024622700020F1E70B
:10121000D80C002001480078704700003000002002
:1012200005490A78904201D300207047496800EBD5
:10123000400001EB00107047300000200E4910B54F
:1012400091F82D00202812D091F82D00A1F5806290
:10125000C0EBC00002EB800091F82D104068C1EB9C
:10126000C10152F82120BDE810400421104740F68A
:10127000BC01702003F054FBEC10002070B5054653
:10128000202A28D019481A4C00EB831C03EB430397
:101290000CEB42002344202922D00CEB4101407882
:1012A0004C784870204601460CEB41009142057095
:1012B0004078F8D193F82220202A1ABF0CEB420282
:1012C000547083F8214020220CEB410C8CF8012053
:1012D00083F8221070BD4FF42671702003F020FBBC
:1012E00093F82040407883F82000DBE76C10002062
:1012F000EC1000202DE9FF4F8DB015460C4602F092
:1013000051FA284420F07F4008902168081A000212
:10131000C11700EB11600012002800F3F080DDF827
:101320004080CD4808EB48010844099090F82050CF
:101330002020CA4E0DF1180A0DF11C098DF8180075
:10134000202D1CBFC64800EB881B38D0C5EBC5005C
:1013500006EB800000F10801C0682768381A000217
:10136000C21700EB1260001229D4E08900B3C889CB
:10137000F0B90868039003F029F9B0F5C67F08BFFB
:101380000D200BD0A0F54070563808BF1C2005D0AA
:10139000A0F500709F3814BF00203220411C039834
:1013A000381A0002C21700EB12600012884206DBF6
:1013B0000BEB45008AF800504578202DC6D19AF8ED
:1013C000000089F80000202D1CBFA54800EB881BF9
:1013D00000F03E81C5EBC50006EB80076168D7F8D9
:1013E000088007F10800A8EB01010902CA1701EB08
:1013F0001261091227D4C089002800F02981E089F0
:10140000002840F02581D4F800A003F0DFF8B0F503
:10141000C67F08BF0D200BD0A0F54070563808BF1E
:101420001C2005D0A0F500709F3814BF002032208A
:10143000411CA8EB0A000002C21700EB1260001268
:10144000884280F2058189F80050387E217C8842EC
:1014500006D90BEB45004578202DBBD100F0F8B83C
:101460009DF81C00C0EBC00006EB8000C18AC56877
:10147000E1BBE189D1B3876803F0A8F8B0F5C67F76
:1014800008BF0D200BD0A0F54070563808BF1C20B7
:1014900005D0A0F500709F3814BF00203220411CF9
:1014A000E81B0002C21700EB1260001288421DDA2E
:1014B00003F08CF8B0F5C67F08BF0D200BD0A0F567
:1014C0004070563808BF1C2005D0A0F500709F382A
:1014D00014BF002032209DF81C10401CC1EBC1013C
:1014E00006EB81018968084420F07F450898281A96
:1014F0000002C11700EB11600012002803DD11B0DB
:101500000020BDE8F08F2068A84202D9A168491CDC
:10151000A16061680DF1180A081A284425F07F417E
:1015200020F07F40C4E9001010980B9009980DF14D
:101530001C0890F8205020208DF81800202D3CD059
:1015400047490B9801EB801BC5EBC50006EB8000FB
:1015500000F10801C0682768381A0002C21700EBC2
:101560001260001229D4E08900B3C889F0B9D1F81B
:10157000009003F02BF8B0F5C67F08BF0D200BD00C
:10158000A0F54070563808BF1C2005D0A0F50070AB
:101590009F3814BF00203220411CA7EB0900000235
:1015A000C21700EB12600012884206DB0BEB45000D
:1015B0008AF800504578202DC6D19AF8000088F8A6
:1015C00000000B98202D1CBF254901EB801B3FD04C
:1015D000C5EBC50006EB80076068D7F8089007F1F7
:1015E0000801A9EB00000002C21700EB1260001214
:1015F00022D4C88960B3E08950BBD4F800A002F0BF
:10160000E5FFB0F5C67F08BF0D200BD0A0F54070F8
:10161000563808BF1C2005D0A0F500709F3814BFB5
:1016200000203220411CA9EB0A000002C21700EB87
:101630001260001288420BDA88F80050387E217C54
:1016400088427FF60DAF0BEB45004578202DBFD1CA
:1016500011B00120BDE8F08FEC100020EC0C002050
:101660006C1000202DE9F84F0F46064601EB4700AD
:101670004B4999460844924690F82040202010702B
:10168000A1F58068202C1CBF464800EB871B38D092
:10169000C4EBC40008EB800000F10801C0683568A5
:1016A000281A0002C21700EB1260001229D4F08938
:1016B00000B3C889F0B90868009002F087FFB0F560
:1016C000C67F08BF0D200BD0A0F54070563808BF6C
:1016D0001C2005D0A0F500709F3814BF00203220D8
:1016E000411C0098281A0002C21700EB1260001279
:1016F000884206DB0BEB44008AF800404478202C3B
:10170000C6D19AF8000089F80000202C1CBF25489B
:1017100000EB871A40D000BFC4EBC40008EB800781
:101720007068BD6807F10801281A0002C21700EBB3
:101730001260001222D4C88970B3F08960BBD6F859
:1017400000B002F043FFB0F5C67F08BF0D200BD0FC
:10175000A0F54070563808BF1C2005D0A0F50070D9
:101760009F3814BF00203220411CA5EB0B00000263
:10177000C21700EB1260001288420DDA89F80040AF
:10178000387E317C884202D80020BDE8F88F0AEB11
:1017900044004478202CBFD10120BDE8F88F000020
:1017A000EC1000206C1000202DE9F74F98B0154682
:1017B0008B4602F0A5FA044602F03AFD0646BBF15C
:1017C000010F18BFBBF1020F05D040F692114FF088
:1017D000700003F0A5F8FF4901200860FE49896800
:1017E000086000208DF856000E90401E0F90FB49B7
:1017F000C5EBC50001EB8001D1E9020CD1E904235E
:10180000CDE9100CCDE912238969149112F01FFD66
:101810000146BDF84E809DF84C00F14B4044421CFF
:10182000881899424FD8EF4DAA4253DC69428A4248
:1018300058DB591C8142DCBF00F5F700A0F1F850DD
:1018400005DD0028BCBFA0F5F70000F1F8500C90B2
:10185000E548B8F1000F808BADF8540004BF0020BC
:101860000B900BD001200B90DF4890F82A0028B98C
:1018700002F0DEFF002808BF012700D0002702F099
:10188000A5FEB0F5C67F08BF0D200BD0A0F54070B7
:10189000563808BF1C2005D0A0F500709F3814BF33
:1018A000002032204FF00009CA460990464537D93A
:1018B0000C99DFF82C936FEA060C6B4616AA01EB25
:1018C0000C00494504D940F29E51702003F028F8DD
:1018D000AC4504DD40F29F51702003F021F8C3496C
:1018E0008C4504DA4FF4B461702003F019F8C04954
:1018F0008142DCBF00F5F700A0F1F85005DD0028BB
:10190000BCBFA0F5F70000F1F850194601F066FFE2
:101910000098109920F07F400090081A20F07F492D
:10192000002F18BFDDF824A005D19DF85400002831
:1019300018BF4FF0020AB4F1807F08D01098001B46
:101940000002C11700EB11600012012802DA032027
:10195000189D0DE057B1A44890F82B0030B19DF8C8
:10196000540010F1000A18BF4FF0020A254600206B
:1019700082441098A0EB090020F07F42501E20F016
:101980007F40411B0902CB1701EB1361091251453E
:1019900004DBB9F1000F18BF10922DE0B9F1000F70
:1019A00005D09DF8550020B902F038FC08B1AFB958
:1019B0000CE02FB99DF85400002818BFAAF1020AC4
:1019C0004FF000098DF854904E4607E09DF8540002
:1019D00020B100208DF85400AAF1020A1098A0EB63
:1019E0000900401E20F07F40411B0902CA1701EB8D
:1019F0001261091251457CDB0A9705464FF0000938
:101A00000B9F02F055F8281A0002C11700EB116075
:101A10004FEA202A02F0DAFDB0F5C67F08BF0D209C
:101A20000BD0A0F54070563808BF1C2005D0A0F59B
:101A300000709F3814BF002032200B30824520DA1E
:101A4000BBF1010F02D00A9840B112E0B4F1807FDF
:101A50001CD140F61311702002F062FFB4F1807FB8
:101A600007D0601B0002C11700EB116000120428B0
:101A700004DD2C46204602F041F807E0002864DC33
:101A800004E02C46204602F039F8B946B4F1807FD4
:101A900056D01098119A001B121B20F07F4022F0A4
:101AA0007F42012851D3B0F5000F98BFB2F5000F67
:101AB0004BD8204612F0CBFB0C994A4A0D1A4FF036
:101AC000000AAA1A7AF1000218D3464B421AD31A16
:101AD0007AF1000312D3424BAB423EBFC0F59020D7
:101AE00000F1F450451809D3934232D2C1F5902148
:101AF00000E02AE001F1F451084445423A4FB87F32
:101B000060B300BFBBF1010F05D0022002F032FA32
:101B1000012002F02FFAB0452CD2A5EB06014FF0C0
:101B2000020002F071F990B3B8F1000F1CBFA5EBF1
:101B30000801012034D000BF02F066F938B32FE06D
:101B400040F62621702002F0EBFE1BB00020BDE81D
:101B5000F08F40F6FA21702002F0E2FEB04534BF6B
:101B6000304640461E30A842CCDB40F63A21702079
:101B700002F0D6FE0CD9A5EB0801012002F044F9D1
:101B800028B1002E1CBFA91B022009D0D4E741E0D8
:101B900056EA080004D040F67611702002F0C0FE2C
:101BA0002946002002F030F9A0B30B980126002846
:101BB00004BF97F82B00002802D0B9F1000F34D0F1
:101BC00097F82A0018B102F007FD87F82AA0B9F1AA
:101BD000000F0FE00805004038000020EC0C00204A
:101BE000FF7F841E0040420FEC10002000C0BDF0BB
:101BF0000080841E1CD00998201A20F07F41052007
:101C000002F002F960B397F82B00002808BF87F8AC
:101C10002B6015E0FFE7022002F0ACF9012002F092
:101C2000A9F91BB00020BDE8F08F97F82A0090B109
:101C300097F82B0020B1052002F09CF987F82BA023
:101C4000A5EB0800A0F1190100290EDC40F6632184
:101C5000702002F065FE02F0DBFC87F82A60B6E730
:101C60004FF43E71702002F05BFE032002F0CCF8CE
:101C7000C0B10F488068C0F800A00E48C0F800A0AE
:101C80000EAC94E80F0038607960BA60FB6012AC6B
:101C900094E80F0038617961BA61FB611BB00120E3
:101CA000BDE8F08F40F66B21702002F039FE000095
:101CB00038000020080500402DE9FF4F14460D466E
:101CC0004FF0000A0A89514662F31F41AA7AD146B1
:101CD00062F30709EA7A064662F30F292A7883B08D
:101CE0004068C4F800A062F31749C4F804A0C4F81F
:101CF0001090C4E902019D4F7068A0FB078930680D
:101D000012F0A5FA10EB08014AEB090228784FEA15
:101D10006709C9F1000B70B1E08994F81180C043E4
:101D2000D5F804A004F10C0248457CDD40F29F5137
:101D3000702002F0F5FDDFF838C2D5E9040311EB9D
:101D40000C0A42F1000CB0EB0A0A73EB0C0C72D2D5
:101D5000411A73EB02016ED3B0EB0806B7422BD8E1
:101D6000E089A6F1F458A8F59028C143814A08EB10
:101D7000010042452BD34945D8DC594566DB8742F3
:101D8000DCBF00F5F700A0F1F85005DD0028BCBF6E
:101D9000A0F5F70000F1F8506A4601A901F01EFD18
:101DA000E0899DF80010301A401A401EB84202D354
:101DB000A068401CA0604646E0896E4BC1436D6838
:101DC00094F81180701804F10C029E4204D940F27C
:101DD0009E51702002F0A4FD4945A7DC594535DB32
:101DE0008742DCBF00F5F700A0F1F85005DD0028C0
:101DF000BCBFA0F5F70000F1F850214601F0EEFC61
:101E0000206820F07F417019401C2160B8F1000F5C
:101E100008BF7A3004D0B8F1010F08BF48303AD17A
:101E200001F0C0FC01E00EE005E020F07F406060C2
:101E300007B0BDE8F08F3068401E20F07F40206082
:101E400000F57A70F3E70146584504DA4FF4B461BF
:101E5000702002F065FD8742DCBFA1F1F450A0F5CF
:101E6000902005DD0028BCBF01F1F45000F5902062
:101E7000214601F0B3FC2068B8F1000F20F07F414B
:101E80000AF10100216008BF7A3009D0B8F1010FD2
:101E900008BF483004D040F23961702002F040FDA4
:101EA00001F080FC20F07F416160B4F80E9001AA3F
:101EB00069464846376801F091FC02F0B9F901F033
:101EC00071FC80462C4890F82D1020292AD0C0683B
:101ED000401D20F07F4000BFD4E90021891A014451
:101EE00021F07F41C4E900013168814202D9A06834
:101EF000401CA060326828692146069BFFF7FAF96A
:101F000000281CBF07B0BDE8F08FD4E90010401ACC
:101F1000316821603168084420F07F40606007B07C
:101F2000BDE8F08F0937B9F1000F16D002F080FC40
:101F300098B902F04BFBB0F5C67F08BF0D200BD05F
:101F4000A0F54070563808BF1C2005D0A0F50070E1
:101F50009F3814BF0020322007440098804584BF7A
:101F6000A8EB0000074427F07F40B5E70080841EFF
:101F70000040420FFF7F841EEC10002070B51E4D04
:101F800095F82D00202818BF70BD95F82C2002EB85
:101F90004200284490F82040202C27D0174B03EB18
:101FA000821101EB4401497880F82010FF2085F868
:101FB000290085F82D402146022000F091F80020EC
:101FC00085F82800A8770E49C4EBC40001EB800017
:101FD000007E002808BF02F0BFFE002009494968C2
:101FE000002908BF70BDBDE87040084740F232319B
:101FF000702002F095FC0000EC1000206C10002016
:10200000EC0C0020380000202DE9F05FDFF8C080E4
:1020100098F82C5005EB4500404490F82140202CC6
:1020200008BFBDE8F09FDFF8ACB0DFF8ACA0AAF5C0
:1020300060790AEB8517072617F8140001280ED0DF
:10204000042808BF02260AD005280CBF032606284C
:1020500005D040F6DD014FF0700002F061FCBBF1ED
:10206000000F18BFAFF30080EFF3108072B607EBDC
:1020700044014A7805EB4501414481F8212091F85B
:102080002220A24204BF202281F82220C0B12A4689
:102090002146012000F024F8C4EBC40109EB8100C3
:1020A00059F8212040683146904798F82C5005EBAC
:1020B0004500404490F82140202CBAD1BDE8F09F63
:1020C0000648002818BFAFF3008062B6DFE70000C3
:1020D000EC100020000000006C1000200000000048
:1020E000DFF858C010B500230CEB821C07281FD264
:1020F000DFE800F0050505050404040001230CF8E1
:102100001100002B08BF10BD02EB42020C48024434
:1021100092F8220020280EBF82F821100CEB40001C
:10212000417020200CEB4103587082F8221010BD42
:1021300040F26E21702002F0F3FB00006C100020D2
:10214000EC1000202DE9F05F0F468046DFF858A123
:1021500001EB47005044B8F1010F90F820402546AC
:1021600018BFB8F1020F05D040F6A1214FF0700062
:1021700002F0D6FB4FF0000B202D42D09AF81E0043
:102180000026002808BF022601F092FCDFF81CC1DF
:10219000C4EBC4010CEB81018A68C968121A091AE0
:1021A00022F07F4221F07F41964299BFB2F5000FA5
:1021B000B1F5000F3E4A02EB871920D9224609EB00
:1021C00042014C78202C12D0C4EBC4010CEB8101ED
:1021D0008B68C9681B1A091A23F07F4321F07F41DD
:1021E0009E429CBFB3F5000FB1F5000FE6D8202A40
:1021F00005D03B4620210420FFF740F80446AC42BE
:1022000016D12C48002818BFAFF3008001F050FC15
:1022100003469AF82E0020280DD0DAF80800991C01
:10222000081A0002C11700EB11600012002802DD3D
:102230000020BDE8F09F202D14D02A4641461846C4
:10224000FFF7B2FA00281EBF8AF82E500220BDE820
:10225000F09F3B462A4620210420FFF70FF800207C
:10226000BDE8F09F9AF82A0018B102F0B5F98AF893
:102270002AB09AF82B0020B1052001F07BFE8AF8E5
:102280002BB0042001F076FE01F0E4FE20208AF855
:102290002E0009488068C0F800B00848C0F800B0B7
:1022A0000120BDE8F09F0000EC100020EC0C0020A5
:1022B0006C100020000000003800002008050040DD
:1022C000064910B591F82D20202A1CBF887710BD33
:1022D00040F29A31702002F023FB0000EC10002045
:1022E0002DE9F04F694E07468DB096F82D008846CF
:1022F000202855D096F82D0006F10804C0EBC00048
:10230000A6F5806909EB800A20208DF8200096F858
:102310002C000AAA00EB4000304409A990F8205094
:10232000F06802903068384401F058FADAF80C008E
:102330000999652F084438D3554A0021D21B71EB07
:10234000010232D32268821A22F07F42B2F5000FD6
:102350002BD820F07F406060304684F8108090F8E1
:102360002C000DF1200A202D1CBF4A4901EB801BD7
:1023700050D000BFC5EBC50009EB80086168D8F8F4
:10238000086008F10800711A0902CA1701EB12610E
:1023900009122DD4C08900283CD0E08948B139E029
:1023A00040F66831702002F0BBFA0DB00120BDE8A4
:1023B000F08F20680C9002F009F9B0F5C67F08BFD5
:1023C0000D200BD0A0F54070563808BF1C2005D05A
:1023D000A0F500709F3814BF00203220411C0C98DB
:1023E000301A0002C21700EB12600012884211DAA4
:1023F0008AF8005098F81810207C814205D802987D
:1024000060600DB00220BDE8F08F0BEB4500457811
:10241000202DAFD1052001F0ADFD1C4C4FF0FF3059
:10242000606094F82C309DF820202021202A03D0D1
:102430000520FEF723FF04E003EB4300204490F85F
:10244000200094F82C20134901EB821194F82D20E0
:1024500001EB42014870206838442060FF2084F876
:102460002900607E012805D1E068401E20F07F40F1
:1024700001F0E4FB9DF82000202803D006484078B6
:1024800002F022FB0DB00020BDE8F08FEC10002020
:102490000040420F6C1000203800002070B5244A24
:1024A00092F82D1020293AD092F82D10A2F58063D1
:1024B000C1EBC10103EB810C92F82C1092F82C4077
:1024C00001EB4101114491F82010A2F1800505EBC8
:1024D0008414202928D0C1EBC10503EB85052D7E8E
:1024E000854284BF04EB41014978F2D8C1EBC101B8
:1024F00003EB8101DCF80C0089681468081A0002FB
:10250000C11700EB1160001207D411F0A0FE04F116
:102510006501884224BF001B70BD002070BD40F6DD
:102520003A31702002F0FCF94FF0FF3070BD00002E
:10253000EC100020064810B590F82D1020291CBF83
:10254000007E10BD40F66231702002F0E9F9000013
:10255000EC10002070B5C0EBC001094800EB81040D
:1025600008492069A0FB0156A06811F070FEE18ABD
:10257000227D401C11440844401946F1000170BD01
:10258000EC0C00200080841EF8B56B4D6B4A05F5FD
:102590008064012694F82A1008287CD2DFE800F035
:1025A000047097A9C741AEB319B902F031F884F8A5
:1025B0002A60E08A10B102F03BF980B1FFF7DEFC3F
:1025C000FF2084F827006168B1F1FF3F03D00520A8
:1025D00001F01AFC40B1607E012810D109E040F6FC
:1025E0006901702002F09CF940F66E01702002F043
:1025F00097F9E068401E20F07F4001F01FFB94F83F
:102600002D0094F82D10C0EBC00005EB8000406851
:10261000C1EBC10155F8212001B00121BDE8F04016
:10262000104794F82B0040B119B901F0F1FF84F87C
:102630002A60002084F82B00F8BDFFF79FFC4FF0C4
:10264000FF30606094F827008DF800009DF80000CE
:1026500088B194F82D0094F82D10C0EBC00005EB64
:1026600080004068C1EBC10155F8212001B006216E
:10267000BDE8F040104740F68501702002F050F9A7
:10268000FFF77CFC84F8266002F0D2F820B194F8C1
:102690002A0030B109E04AE040F69301702002F0D0
:1026A0003FF901F0B5FF84F82A6094F82D0094F802
:1026B0002D10C0EBC00005EB80004068C1EBC101EC
:1026C00055F8212001B00021BDE8F040104701F08D
:1026D00091FDE08A10B102F0ABF828B101F09EFD47
:1026E000002818BF6677F8BD40F69D01702002F003
:1026F00017F91348066090680660F8BD1078BDE8C9
:10270000F84002F0E1B9FFF739FC94F82D0094F895
:102710002D10C0EBC00005EB80004068C1EBC1018B
:1027200055F8212001B00521BDE8F04010474FF4D5
:102730000B61702002F0F4F8EC0C0020380000204F
:10274000080500402DE9F34F8246EF4895B0006838
:10275000EE4DC005C00D0ED0103840B20028B8BFF5
:1027600000F00F0000F1E020ACBF90F8000490F8FA
:10277000140D40090DD016984FF0000B007800287A
:1027800018BF012818D040F23B714FF0700002F0E2
:10279000C7F895F82D004FF0010B202807D01698A8
:1027A000007848B140F23771702002F0B9F840F279
:1027B0003471702002F0B4F8D54C24B1002140F2FD
:1027C0003E70AFF300800020CDE91000D149CAEB84
:1027D000CA0001EB80004FF00109009024B10021F4
:1027E00040F24970AFF30080B9F1000F0AD000BF8A
:1027F00095F82C604FF0000885F82980BBF1000F98
:1028000007D038E0C448002818BFAFF3008062B694
:10281000EEE73746012020EA0706C048402200EBD9
:10282000871100EB861011F06EFE24B1002140F2FA
:102830005E50AFF3008007EB470106EB46002944EA
:1028400028440A8C028491F8221080F8221024B1C6
:10285000002140F26250AFF3008024B1002140F229
:102860005370AFF3008095F829008DF808009DF8AB
:1028700008000028B2D124B1002140F25D70AFF30E
:10288000008002A801F01AF9DDE90201CDE90E018C
:10289000334609AA0EA81699FFF70EFA24B10021B3
:1028A00040F26470AFF300809C4A0E9902EB8617E9
:1028B00009A817F81A20012A18BF022A38D1099A44
:1028C0000A9BA2EB010222F07F42A3EB0101CDF8AB
:1028D000448021F07F41022A64D3B2F5000F98BFF3
:1028E000B1F5000F5ED84FF0010814AB13AA3146C2
:1028F000FEF7B8FE00285DD09DF84C109DF85020E2
:1029000033468A425AD00520FEF7B8FC07EB4A014D
:1029100048709DF84C0020281CBF07EB400080F851
:1029200001A057D0324651465FF00300FFF7D8FBB5
:1029300024B1002140F26970AFF30080784800288C
:1029400018BFAFF30080EFF3108972B624B10021F5
:1029500040F26F70AFF3008095F829008DF8080001
:102960009DF8080000287FF439AF24B1002140F21F
:102970007770AFF3008009AF009897E80E1000F170
:102980000807B8F1000F87E80E100D99816151D04A
:1029900024B1002140F28470AFF30080BBF1000F3E
:1029A00039D11FE0324651460420FFF799FB4FF022
:1029B0000108BDE7324651460420B7E7202919BF78
:1029C00007EB4100407806EB4600284408BF90F82A
:1029D00020009BE706EB4601294481F820A0CDF8B2
:1029E00044809FE7119810F0FF0F14D095F82D0048
:1029F000202810D124B1002140F28970AFF300806B
:102A000031460220FFF79EFB109020B916980078FF
:102A1000E8B101282AD024B1002140F2A670AFF31A
:102A20000080FF20BBF1000F18BF85F8290026D0D9
:102A30004FF0010824B1002140F2B770AFF30080DD
:102A40001098384E022823D0012829D02DE024B137
:102A5000002140F29170AFF3008095F82C20514690
:102A60000420FFF73DFB4FF00108E3E7002C3FF4A3
:102A7000B5AE002140F29C70AFF30080AEE695F851
:102A80002C200121914385F82C1085F82900CFE7EF
:102A9000A8680E99401A11F0DAFB716821B904E0B8
:102AA00071684FF0FF3001B18847B9F1000F24D0B1
:102AB00024B1002140F2C770AFF30080B8F1000FDD
:102AC00011D095F82C0000EB4000284490F821002C
:102AD000202808D024B1002140F2CE70AFF300804E
:102AE000707801F0F1FF24B1002140F2D370AFF310
:102AF000008017B04046BDE8F08F0748002818BF97
:102B0000AFF3008062B6D3E704ED00E0EC100020E4
:102B100000000000EC0C0020000000006C10002001
:102B200000000000380000202DE9F04F0646007834
:102B30008DB018B10DB00020BDE8F08F8C48006852
:102B4000C005C00D0ED0103840B20028B8BF00F04C
:102B50000F0000F1E020ACBF90F8000490F8140DD5
:102B60004009E7D0834D844C4FF0010B002725B17D
:102B7000002140F2E550AFF3008094F82CA084F8D7
:102B800029704FF0000925B1002140F2EA50AFF35F
:102B900000807A482BEA0A0800EB8A1100EB8810C3
:102BA000402211F0B0FC25B1002140F25E50AFF39D
:102BB00000800AEB4A0108EB4800214420440A8CBB
:102BC000028491F8221080F8221025B1002140F2F1
:102BD0006250AFF3008025B1002140F2EF50AFF317
:102BE000008008A800F06AFFDDE90801CDE90A01CC
:102BF00043466A4631460AA8FFF75EF825B1002130
:102C000040F2F550AFF3008094F82D0020281AD040
:102C1000E0680099091A0902CA1701EB126109124A
:102C200011D50099814202D90299491C0291DDE92E
:102C30000021891A20F07F42084420F07F40CDE92E
:102C400000204FF0010925B1002140F2FF50AFF301
:102C5000008000990A98019A091A101A21F07F4100
:102C600020F07F40B1F5000F98BFB0F5000F09D8F4
:102C70004346694642480A9AFEF73CFB59EA00007F
:102C800029D142E00B98BDF80EA0029009AA07A92D
:102C90005046DDF8288000F0A1FD01F0C9FA00F0EF
:102CA00081FD814694F82D0020283BD0E068401D2E
:102CB00020F07F400099814202D90299491C02917B
:102CC000DDE90021891A0090084420F07F4001903E
:102CD0001F208DF80C00009811F0B9FA411CBDF8C6
:102CE0000E009DF80C2010440844C6E9040725B1E5
:102CF000002140F21A60AFF30080D6E90410214AA7
:102D0000029BE3FB0210C6E9041094F829008DF839
:102D100014009DF8140000287FF429AF0DB00120A5
:102D2000BDE8F08F08F10908BAF1000F16D001F0E4
:102D30007FFD98B901F04AFCB0F5C67F08BF0D20B1
:102D40000BD0A0F54070563808BF1C2005D0A0F568
:102D500000709F3814BF3846322080440798814560
:102D600084BFA9EB0000804428F07F40A2E7000068
:102D700004ED00E000000000EC1000206C100020CA
:102D80000040420F0080841E2DE9F14F924D8CB01F
:102D900095F82C0000200890069001208F4CA5F19A
:102DA00080094FF000080746079024B1002140F247
:102DB000E470AFF30080079800283CD085F82980A4
:102DC00024B1002140F2E970AFF3008095F82CA007
:102DD000402227EA0A0609EB861009EB8A1183468E
:102DE00011F091FB24B1002140F25E50AFF300805E
:102DF00006EB46000AEB4A012844294400900A8C5D
:102E0000028491F8221080F8221024B1002140F2AF
:102E10006250AFF3008095F829008DF808009DF806
:102E2000080078B1002C1CBF002140F2EF70BCD02C
:102E3000AFF30080B9E76A48002818BFAFF30080FD
:102E400062B6BBE724B1002140F2F370AFF300801B
:102E50000C981BF8100003287ED1009A0C9992F868
:102E60002000884214BF4FF0000A4FF0010A02F11F
:102E7000200C8346202209EB861303E0024603EB75
:102E800042004078884202D020280AD0F6E7202865
:102E900007D0834507D103EB4B0040788CF8000046
:102EA00007E040460CE003EB400003EB42014078B2
:102EB000487024B1002140F2C940AFF30080384689
:102EC000C34610EA0A0F18BFBB4600284ED024B1F3
:102ED00000214FF4FF60AFF30080324601200C99CF
:102EE000FFF7FEF824B1002140F60100AFF30080A7
:102EF0003C48002818BFAFF30080EFF3108072B693
:102F0000079024B1002140F60600AFF3008095F849
:102F100029008DF808009DF8080038B1002C1CBF6E
:102F2000002140F60A003FF440AF81E7BBF1000FFB
:102F300009D095F82D00202805D131460220FFF751
:102F400001F90690F8B124B1002140F61E00AFF35C
:102F5000008095F82C0000E008E027EA000085F8E2
:102F60002C00FF2085F829000120089024B10021C1
:102F700040F62700AFF3008006981B4E022809D0C8
:102F8000012810D014E09CB1002140F61900AFF3E5
:102F90000080ECE700F08CFDA968081A11F057F9E1
:102FA000716821B904E071684FF0FF3001B18847C2
:102FB000079848B124B1002140F63C00AFF30080EF
:102FC00008980DB0BDE8F08F0548002818BFAFF392
:102FD000008062B6EEE70000EC1000200000000068
:102FE000000000000000000038000020202824BF5E
:102FF00000207047C0EBC000034B43F8201003EBE8
:103000008000426001207047EC0C002010B52028A1
:1030100011D20E4991F82C30A1F1800202EB831CF1
:103020001CF810303BB191F82C3002EB831212F8EF
:103030001020012A01D0002010BD91F82C2001465B
:103040000020FFF74DF8012010BD0000EC1000201B
:103050002DE9F84F864E804696F82C00A6F18007A1
:1030600007EB801010F81800002871D096F82C900B
:10307000804D25B1002140F6AE30AFF3008007EB64
:10308000891414F81800012818D0C0B204281CBFF5
:103090000528062861D02DB14FF0000140F6BA3066
:1030A000AFF3008001F076FD25B1002140F6BE307F
:1030B000AFF3008014F818000128E6D1012425B1EF
:1030C000002140F6C530AFF30080002C4BD000202B
:1030D00086F8290025B1002140F6CA30AFF3008000
:1030E00096F82CB0012020EA0B0907EB8B1107EBB7
:1030F0008910402211F007FA25B1002140F25E50FC
:10310000AFF3008009EB490000EB060A0BEB4B0024
:103110003044018CAAF8201090F822008AF822008E
:1031200025B1002140F26250AFF3008096F82900EB
:103130008DF800009DF80000E0B1002D1CBF0021BB
:103140004FF43D60BBD000BFAFF30080B7E7FFE7AF
:1031500040F6A531702001F0E3FB4A4641460120CC
:10316000FEF7BEFFA0E74448002818BFAFF3008079
:1031700062B6ACE725B1002140F6D430AFF3008051
:103180009AF821300AF1210140461C464FF0200BED
:1031900007EB89120AF1220A04E0A34602EB4B0C6A
:1031A0009CF80140844202D0202C2BD0F5E7202C43
:1031B00028D0A34204D102EB43004078087005E018
:1031C00002EB440002EB4B0140784870BAF1000F6B
:1031D00011D025B1002140F2C140AFF300809AF830
:1031E0000000A04207D125B1002140F2C440AFF356
:1031F00000808AF800B05DB1002140F2C940AFF311
:10320000008000E025B1002140F6D830AFF3008007
:103210001A48002818BFAFF30080EFF3108472B68D
:1032200096F829008DF800009DF8000038B1002DB7
:103230001CBF002140F6DE303FF441AF84E786F842
:103240002C90FF2086F8290054B1002D08BFBDE85E
:10325000F88F002140F6EB30AFF30080BDE8F88F27
:103260000548002818BFAFF3008062B6EDE7000004
:10327000EC10002000000000000000000000000032
:1032800070B50D46064601F0C1FA0F4890F82C20A3
:103290000024803800EB821010F8141029B1611C52
:1032A000CCB2202CF8D3202070BD0848C4EBC40158
:1032B00040F8216000EB8100214645600120FEF7C7
:1032C0000FFF204670BD0000EC100020EC0C002029
:1032D0002DE9F04F83B000F0EBFB054600F0BAFE9D
:1032E000844C6068B0F1FF3F1CBF4FF0FF3060605E
:1032F000A07FDFF8049290B9D4E90210401A20F0C0
:103300007F404FF40C7110F0CFFFE1680844281A99
:103310000002C11700EB11600012C00F12D0607ED6
:1033200020B394F827008DF800009DF80000E8B164
:1033300000F0ECFC94F82800F0B140F2F531702078
:1033400001F0EEFA94F82D0094F82D10C0EBC000B7
:1033500009EB80004068C1EBC10159F82120082128
:10336000904740F2DD31702001F0DAFAE81C20F0DD
:103370007F4000F0C3FBDDE7012084F8280094F8CB
:103380002D00202821D094F82D80202084F82D00B5
:1033900084F82E00002084F8260084F8270020609E
:1033A00000F04CFF207794F82C6006EB46000719DC
:1033B00097F82000202858D0C0EBC00009EB800906
:1033C00099F81A00012805D04FE04FF47E71702063
:1033D00001F0A6FAB9F816B001AA6946584600F0FD
:1033E000FDF900F025FF00F0DDF994F82D0020280C
:1033F00004D0E068401D20F07F401DE005F1090A7F
:10340000BBF1000F16D001F013FA98B901F0DEF805
:10341000B0F5C67F08BF0D200BD0A0F54070563820
:1034200008BF1C2005D0A0F500709F3814BF0020F5
:10343000322082442AF07F40D9F80820811A0902FC
:10344000CB1701EB1361091200290EDC09F1080307
:10345000824202D29968491E9960D3E90021891AF3
:103460001860084420F07F40586031460120FEF784
:1034700069FE5FEA0009F8D0204800EB861010F8DA
:103480001800022804D1324641460620FEF728FEE5
:10349000FF2084F8290097F82100194E20281CBF2E
:1034A000707801F011FB207F20B100F0A3FE002016
:1034B00020776077B9F1020F11D0B9F1010F1CBF6D
:1034C00003B0BDE8F08F4FF0FF307168002904BFF2
:1034D00003B0BDE8F08F03B0BDE8F04F0847A06827
:1034E000401B10F0B4FE71680029F4D103B0BDE8B0
:1034F000F08F0000EC100020EC0C00206C1000207D
:103500003800002070B5424C054682B094F82D007A
:10351000202808D06068B0F1FF3F09D040F6D921DB
:10352000702001F0FDF940F6D821702001F0F8F983
:1035300094F82D003749C0EBC00001EB8006B0685D
:1035400010F085FE0246F08A317D334B0844401C62
:1035500011189A4217D8314A90421BDCC2F1000C74
:1035600060451EDB56008E42DCBF01F5F701A1F17C
:10357000F85105DD0029BCBFA1F5F70101F1F851B3
:103580004819994204D940F29E51702001F0C8F9BF
:10359000954204DD40F29F51702001F0C1F965456C
:1035A00004DA4FF4B461702001F0BAF98642DCBF4E
:1035B00000F5F700A0F1F85005DD0028BCBFA0F52C
:1035C000F70000F1F85001AA694600F007F99DF8EC
:1035D00004000F288CBF012000200099084420F02F
:1035E0007F41616094F827008DF800009DF800008D
:1035F000002804BF02B070BD052000F005FC0028C3
:103600001CBF02B070BD4FF42E61702001F088F92C
:10361000EC100020EC0C0020FF7F841E0040420FC5
:1036200070B51C4C202184F8201084F8211084F8F7
:103630002210002084F82C0084F82D10421EC4E9CA
:103640000002A07784F8260084F8270020776077AE
:1036500084F82E1084F82A0084F82B00A4F182014B
:103660001022887001F8040F521EFAD100F0F0FD0C
:10367000094D012684F82860FF202870074801F0D2
:1036800005FA687001F070FAA86000F06BFD84F82C
:103690002F6070BDEC1000203800002009200000D1
:1036A00070B50546012000FA05F40E46002A08BF51
:1036B00008480CD0002000F03BFDE90001F18041FA
:1036C00001F5F831C1F81005C1F81465024804602D
:1036D00070BD000008F5014004F5014000B583B05D
:1036E000684600F0EBF9009810F0B1FD019A034B29
:1036F0000021E2FB030103B000BD00000080841E36
:1037000070B5064682B01D46104610F0A0FD044676
:10371000684600F0D3F920490198A0FB0102301A55
:1037200044BFA0F5F70010F1F85004D54FF4406104
:10373000702001F0F5F8884204DB40F6014170206A
:1037400001F0EEF8154A211A00238A1A73F10002DB
:1037500018D3DFF848C0021BB2EB0C0C73F1000366
:1037600010D30F4B8B423EBFC0F5902000F1F450B8
:10377000011907D393420AD2C4F5902101F1F45103
:103780000844414201F10F0002B0281A70BD40F612
:10379000FA21702001F0C4F80080841E0040420F1E
:1037A000FF7F841E410B48F2376251430A0C094BDC
:1037B000510202FB03020848504300F586306E3088
:1037C000400D5B4210FB03F3B2EB532F88BF491C43
:1037D00008447047F7C2FFFF6F0C0100430B48F22B
:1037E000376C03FB0CF330B41B0CDFF844C05C02F5
:1037F00003FB0C030F4858434FEA505C04EB0C00EA
:1038000043F609541CFB04F404F5807C43F6085588
:10381000A3EB5C2C2C440CF0FF0CB3EB542F84BFB7
:103820004FF0000C401C086082F800C030BC7047AC
:10383000F7C2FFFF6F0C01002DE9F0413B4DD5F8B9
:103840000403DFF8EC8010F4803F4FF400664FF083
:10385000E0274FF0000419D036480068B0B1C5F831
:103860004041C7F88062D5F84005D8F80010401AEA
:1038700020F07F40022802D3B0F5000F06D94FF4A4
:103880008030C5F808030420FEF77EFED5F8040357
:1038900010F4003F1AD028480068B8B1C5F8444178
:1038A000C7F880622548D0F84005D8F80010401AC3
:1038B00020F07F40022802D3B0F5000F06D94FF464
:1038C0000030C5F808030520FEF75EFED5F80403B6
:1038D00010F4802F1AD01A480068B8B1C5F84841D2
:1038E000C7F880621748D0F84005D8F80010401A91
:1038F00020F07F40022802D3B0F5000F06D94FF424
:103900008020C5F808030620FEF73EFED5F8040126
:10391000002808BFBDE8F081C5F80441C7F88062FF
:103920000948C168491CC160BDE8F08100B0004091
:1039300004B5004040B1004044B1004004B0004034
:1039400048B1004008B00040440000202DE9F0419B
:10395000384D2878042868D0A81C0122017859B174
:10396000012908BF6A7002D06978002958D0022165
:103970000170407800F0FEFA2F4CD4F804034FF0A9
:10398000000810F4002F4FF480774FF0E0260AD0A3
:103990002A48006838B1032000F0ECFAC6F88072BB
:1039A0000320FEF7F1FDD4F8040310F4802F0AD0B1
:1039B0002348006838B1022000F0DCFAC6F88072B3
:1039C0000220FEF7E1FDD4F8040310F4003F0AD012
:1039D0001C48006838B1012000F0CCFAC6F88072AB
:1039E0000120FEF7D1FDD4F8040310F4803F08BF96
:1039F000BDE8F08114480068002808BFBDE8F081E8
:103A0000002000F0B7FAC6F8807204202870C5F8CC
:103A10000480C4F80082BDE8F0410020FEF7B4BD88
:103A200040F2A3416C2000F07BFFBDE8F04107208D
:103A3000FEF7AABD44000020008000404C810040F9
:103A40004881004044810040408100400122110231
:103A50004FF0E0230020C3F8801103F5C073BFF3DB
:103A60004F8FBFF36F8FC3F800110E4941F8042F39
:103A7000431EC1F80433C1F83C05C1F83C010A4BB0
:103A8000C3F84005C1F840011B1DC3F84005C1F84B
:103A900044011B1DC3F84005C1F84801CA60034931
:103AA00048707047008000400480004044000020BF
:103AB000014800687047000004B5004030B4EFF3DF
:103AC000108C72B600250B4B0B4A00BFD3F80415BF
:103AD000D3F804412CB1D168491CD160C3F804511A
:103AE000F4E7D268BCF1000F00D162B6C0E9001261
:103AF00030BC704700B00040440000202DE9F04782
:103B0000464E0546B71E3378B968012B04BFA9425B
:103B1000BDE8F0874FF04040414A1060424A4148BA
:103B2000C2F8080302F1040C4FF00004002B62D02D
:103B30003E48C2F84803CCF84045C2F8444100BFB3
:103B4000D2F848014FF0E0294FF00108002801BFEA
:103B5000D2F8040100284FF40060C9F880024FF445
:103B60008030C2F80803C2F84803C2F84041304828
:103B7000D0F800C0A5EB0C0C2CF07F4CBCF1020F70
:103B800044D3BCF5000F41D8C2F840554FF4803CF7
:103B9000C2F844C32BB102688A1A22F07F42022A7B
:103BA000F9D3C7F804803C70FFF750FF2148D0F8E4
:103BB000041564F30101C0F80415D0F808250221AA
:103BC00061F30102C0F808250421C0F81015C0F8FF
:103BD0000C807968C0F800128015C9F88002C9F815
:103BE00000011549C00508600420BD60707086F8AA
:103BF0000080BDE8F087C2F84803C2F84045C2F82B
:103C00004041CCF84045C2F8444199E70020C2F851
:103C1000400540F297216C2000F082FE4600002013
:103C200008F50140FDFFFBFF00B00040FDFFFAFF7B
:103C300004B500400080004004F5014070B52A4CF6
:103C4000A168814214BF01220022DFF8A0C09CF8C5
:103C50000050022D02D0002A34D002E0002A08BF12
:103C600070BD62789AB3224B4FF080421A60214BAC
:103C70009213C3F80823C3F848230022C3F8402155
:103C80001D4A1668861B26F07F46022E24D3B6F501
:103C9000000F21D8C3F840054FF48036C3F84463C1
:103CA0002DB11368CB1A23F07F43022BF9D3134BAA
:103CB00002214A071A60A06004208CF801008CF8E9
:103CC000001070BD40F2A5216C2000F029FE40F2EA
:103CD000A9216C2000F024FE0020C3F8400540F22A
:103CE000B5216C2000F01CFE44000020460000209E
:103CF00008F5014000B0004004B5004004F5014063
:103D00000148806870470000440000202DE9F04120
:103D10003648354AC0F80823DFF8D4C0031D002117
:103D20009CF8004084B1334AC0F84823C3F84015DA
:103D3000C0F84411D0F848210123002A04BFD0F86C
:103D40000401002811D10AE0C0F84823C0F840154A
:103D5000C0F84011C3F84015C0F84411EAE74FF02D
:103D6000E0224FF40060C2F88002022C04D040F23E
:103D7000C1216C2000F0D4FD1F4E30681F4CC01CC8
:103D800020F07F40A2681E4D90420BD03768D71BB1
:103D900027F07F47042F05D3B7F5000F02D8FFF7B0
:103DA000ADFE1BE03068101A20F07F40022813D3CC
:103DB000B0F5000F10D8134A4FF0804010606360D8
:103DC00021706B60EB604000111F086004208CF8CC
:103DD00001008CF8003001E0636021706068C5F874
:103DE0000002BDE8F0810000FDFFFBFF00B00040D5
:103DF00046000020FDFFFAFF04B50040440000200B
:103E00000080004008F501402DE9F041544A0025AA
:103E1000012492F800C053784FF4A07607287DD291
:103E2000DFE800F004040404585858004D4A97682D
:103E3000B7F1807F04BF5278002A03D0BCF1020F93
:103E400005D026E040F251316C2000F069FD1A1FC8
:103E5000D2B206EB820202F1804606F5304600221D
:103E6000BCF1010F03D0BCF1020F08D00EE0042B0F
:103E700024BF3768002F08BF4FF0004206E0042B34
:103E800024BF3768002F08BF42F0804212F0804FF5
:103E9000E5D1DFF8D4C000F1100204FA02F2CCF848
:103EA00008234FF0400303EB8003DBB263441C6044
:103EB0000CEB8000D0F84035A1EB030323F07F43E7
:103EC000032B26BFC0F84015CCF80423C0F840559A
:103ED00037D23CE0BCF1000F06D0834204D140F25F
:103EE00071316C2000F01CFD021FD3B2032B04D3F0
:103EF0004FF4E6716C2000F013FDDFF870C003F1A1
:103F0000100204FA02F2CCF80823CCF8482306EB9E
:103F100083034CF80350164B1B6800E01AE0001FA7
:103F2000CB1A23F07F43C0B20CEB8000022B0BD3E3
:103F3000B3F5000F08D8C0F84015CCF80423CCF82E
:103F400044230120BDE8F0810021C0F84015002085
:103F5000BDE8F08140F275316C2000F0E1FC00001A
:103F600046000020440000200080004000B00040D7
:103F700004B500402DE9F843012600274FF4A0784E
:103F8000072851D2DFE800F00404040419191900CD
:103F900000F1100106FA01F22649C1F8082301EBED
:103FA00080030022C3F8402508EB80028F5022498D
:103FB00051F820000090BDE8F883204D011FCCB2DD
:103FC000297879B16A7882420CD11D4A4FF040407D
:103FD0001060012908BFFFF739FD2F7019494FF014
:103FE00080708860184904F1100006FA00F0C1F8EA
:103FF0000803C1F84803A0000844D0F84005134A5C
:104000001268801A20F07F40022807D301EB840257
:104010000020C2F8400508EB84000F500C4850F80F
:1040200024000090BDE8F88340F2F9316C2000F0E4
:1040300077FC0000008000404081004046000020E6
:1040400008F501404400002000B0004004B50040E5
:1040500040B100402548244AC0F808232449031DE4
:1040600091F800C00021BCF1000F10D0214AC0F827
:104070004823C3F84015C0F8441100BFD0F84821C8
:10408000002A04BFD0F80401002811D10AE0C0F8CA
:104090004823C0F84015C0F84011C3F84015C0F8D7
:1040A0004411EBE74FF0E0224FF40060C2F88002C9
:1040B00011484FF0FF32C0F80823C0F84015C0F88F
:1040C000401100F10402C2F84015C0F8441102F199
:1040D0000402C2F84015C0F8481102F10402C2F807
:1040E0004015C0F84C117047FDFFFBFF00B00040C9
:1040F00046000020FDFFFAFF0080004010B50728B1
:104100000DD2DFE800F004040404060606000649A8
:1041100002E0001F0549C0B201EB800010BD40F273
:1041200099316C2000F0FCFB4081004040B1004020
:1041300010B507280DD2DFE800F0040404040606D9
:104140000600064902E0001F0549C0B201EB8000ED
:1041500010BD40F299316C2000F0E2FB408100403C
:1041600040B1004070B51F48002404210470801E37
:1041700001708905C4608160FFF768FC01254FF07C
:10418000E02CEB02CCF88031BFF34F8FBFF36F8F81
:10419000CCF8803214484560856014490A68002ACA
:1041A000FCD1511EC0F80813C0F84813C0F84045B0
:1041B000C0F840410E49C1F84045C0F84441091DCE
:1041C000C1F84045C0F84841C0F80441CCF800317E
:1041D00005604FF48271C0F844130221C0F8041343
:1041E00070BD00004600002000B0004004B5004053
:1041F00004B00040084890F900000028B8BF70479C
:1042000000F01F01012202FA01F14009800000F1D3
:10421000E020C0F800127047DC030020034800785B
:1042200003280CBF0120002070470000C8030020B5
:104230000148408870470000C80300200348007808
:10424000022816BF0328012000207047C803002061
:10425000024800210170418070470000C80300201F
:104260002DE9F041164C607A002827D04FF4807178
:104270008D05284610F03CF880464FF482712846A0
:1042800010F036F800260746B8F1000F09D00120DB
:10429000C5F80803207920B12671E06908B180478C
:1042A000E66137B1C5F804610220C5F8080300F0E3
:1042B0006BFA4046BDE8F04100F058B8BDE8F08127
:1042C0005400002010B510F0BDF830B910F0DBF844
:1042D00018B910F00EF9002802D002490220086037
:1042E00010BD0000340C004070B500F091F900F0F2
:1042F0009FFA094C4FF0804530B1FFF7E3FF0120F2
:1043000028610420A07204E00320A0720120C5F8F7
:1043100004030020E07170BD5400002070B5124C01
:10432000A079E0B1E179401E814218DA00F080FA0C
:10433000054600F069FBA179012902D9E179491C00
:10434000E1710DB1616900E02169411A022902DAC7
:1043500011F1020F07DC0DB1606100E02061BDE8E2
:104360007040FFF7C1BF70BD540000202DE9F04739
:1043700006464FF080454FF4867128460FF0B8FF8F
:1043800080464FF4887128460FF0B2FF274C8246D2
:10439000277804F1080010F01FF810B140F2B911AD
:1043A00016E04FF0010946B1A07A032805D1042098
:1043B000A072FFF787FFC5F810900026B8F1000F34
:1043C00018D0C5F80C61A07A042804D040F2CB11B3
:1043D0006D2000F0A5FA10F035F828B910F053F868
:1043E00010B910F086F808B1114806600220A072DA
:1043F00000F0F2F8BAF1000F08D0C5F81061A07A09
:10440000022801D1FFF78AFFC5F814903FB126704A
:10441000A07A022801D1FFF767FF00F0DDF8BDE8C0
:10442000F047024808300FF0EEBF000054000020B3
:10443000340C00402DE9F0475F4C00270646A76189
:10444000427881780078E0726271A171E7714FF073
:1044500001084FF08045052825D2DFE800F0100361
:1044600006202200C4F8188009E000F0D1F80121EC
:1044700028460FF042FF0028F9D00220A0610FF07B
:1044800068FFB0B100F0EEF9217E01F0030188422F
:104490000FD1B07950B10220C5F8040370E047484D
:1044A000ECE74748EAE740F23A314DE000F0AEF978
:1044B00066E0C5F80C804FF4827AC5F80471A069F3
:1044C000C5F818050FF0AAFF40B90FF0B1FF28B9E1
:1044D0000FF0C5FF10B90FF0D6FF38B14FF0805084
:1044E000D0F844023749C0F3423008600FF096FF1D
:1044F00040B90FF09DFF28B90FF0B1FF10B90FF0D0
:10450000C2FF18B12F491031C1F80080C5F80880EA
:104510000220C5F80403B07990BBD5F8040310F06D
:10452000020F0FD0DFF8A090D9F80010C94341F373
:10453000001101F10108D9F8001041F01001C9F88B
:10454000001007E040F2FB216D2000F0E9F900BF08
:1045500000F020FB514628460FF0CAFE0028F7D095
:1045600000F054F9B8F1000F05D1D9F8001021F08E
:104570001001C9F800100220C5F80803C5F804713D
:10458000A07970B1307860B900F052F9064600F0B9
:104590003BFA6FF0004116B1C4E9041001E0C4E930
:1045A0000401012128460FF0A8FE08B100F03AF9F5
:1045B000A772BDE8F087000054000020010002004F
:1045C000010003003C05004010ED00E00148C089F7
:1045D000704700005400002010B5EFF3108472B64D
:1045E0000A48417829B14178491E4170417829B182
:1045F00008E04FF48E716D2000F092F9807808B9D0
:1046000000F024F9002C00D162B610BD5400002047
:1046100010B5EFF3108472B606484178491C41701A
:104620004078012801D10FF07FFE002C00D162B646
:1046300010BD000054000020054810B5C17821B11C
:1046400000210171C170FFF7C7FF002010BD0000FD
:104650005400002070B50C4CE17861B90125E5707B
:10466000E061FFF7D5FF00F0E3F830B1E06910B189
:1046700080470020E061002070BD4FF08040257130
:10468000C0F80453F7E70000540000202DE9F04182
:1046900005006FF015003FD0297804293CD8002987
:1046A00069783BD0002937D1A978002934D100207E
:1046B0000FF0E9FD00200FF0D9FD4FF080484FF0DA
:1046C000FF31C8F808130026C8F80061C8F8046173
:1046D000C8F80C61C8F81061144C6670A888A081F5
:1046E0000FF019FE012708B1E770677001214046FD
:1046F0000FF003FE08B100F095F840F2F550E081AC
:104700002846FFF797FE677200200FF0AFFD4FF0CD
:10471000E0213046C1F80071BDE8F0810029FBD0EE
:104720002029F9D8A9782129C1D9F5E7540000201A
:1047300001488089704700005400002010B50D48E2
:104740000FF04AFE0B49083948B1012008704FF0BC
:10475000E021C1F80002BDE81040FFF759BF887A98
:10476000022801D1FFF7C0FDBDE8104001480FF05D
:104770004ABE00005C0000200248807A002800D079
:104780000120704754000020F8B51F4DE87A00283A
:104790000FD1287E00F003000FF0CBFD002808D0D9
:1047A000EFF3108172B6FFF7E7FF18B1002900D1CF
:1047B00062B6F8BD0126AE7201B962B618204FF09C
:1047C0008044C4F80803A6614FF42070ADF80000DF
:1047D000BDF80000411EADF80010F9D20027C4F862
:1047E0000C71C4F81071084808300FF008FE2F70E3
:1047F000FFF77AFD6661687900F07F00C4F838053C
:104800001820C4F80403F8BD5400002010B5044C6F
:10481000207E00F003000FF08CFD0028F8D010BDC2
:10482000540000200149012008707047DD0300207A
:104830004FF08040D0F8000118B9034800780028F4
:1048400000D0012070470000DD0300204FF08040C1
:10485000012141600021C0F800110148017070473A
:10486000DD0300200248006800F0030070470000EC
:104870001C04004010B531B1012907D040F20231CB
:1048800005A000F021F8D0F8140401E0D0F80804E5
:1048900000F0010010BD00006E72665F636C6F6314
:1048A0006B2E6800BFF34F8F05480168054A01F47D
:1048B000E06111430160BFF34F8F00BFFDE70000CF
:1048C0000CED00E00400FA0572B6034A526802B12A
:1048D0009047FFF7E7FF000074000020064810B57E
:1048E000002101600121016008460FF049FDBDE88B
:1048F000104001200FF037BDFC1F0040074810B5E5
:1049000001214160891EC0F808130C200FF038FD0A
:10491000BDE810400C200FF026BD000000C0004094
:104920000EB572B60F4A5568D5B1002203466E46E1
:104930000A2403E0B0FBF4F0521CD2B20028F9D1F3
:10494000B05409E0B3FBF4F004FB1030B3FBF4F314
:10495000521ED2B23030B054002AF3D13046A847AC
:10496000FFF7A0FF740000202DE9F041184C064627
:10497000174660780D4618B14FF0FF30BDE8F08162
:10498000FCF7DEFB06B9134E67602570FFF7A6FF44
:10499000FFF7B4FF3046FFF779FE0600EED1FEF7D1
:1049A0003FFEFFF7F1FE0FF02CFC28460FF0DBFC7A
:1049B0000120002D09DB05F01F0100FA01F16A0951
:1049C000920002F1E022C2F8001160703046D5E793
:1049D00074000020A24301000148407870470000A5
:1049E00074000020074890F90000002809DB00F05F
:1049F0001F02012191404009800000F1E020C0F831
:104A000000127047740000202DE9F04101264FF09C
:104A1000E02231034FF000084046C2F88011BFF396
:104A20004F8FBFF36F8F164CC4F800010C200FF0AE
:104A3000C6FC144D2868C04340F30017286840F0B6
:104A400010002860C4F8046326607F1C02E000BFE9
:104A500000F0A0F8D4F800010028F9D01FB92868A8
:104A600020F010002860084805686660C4F80863F4
:104A7000C4F800810C200FF0A2FC2846BDE8F081AC
:104A800000C0004010ED00E008C5004010B502462F
:104A900005200C4904E000BF01EBC0031B7933B1D2
:104AA000401EC0B2F8D248216920FFF739FF41F813
:104AB000302001EBC00100224A718A7101220A7183
:104AC00010BD00001C11002010B5052801D358218D
:104AD00006E00A4901EBC0000179012903D0592100
:104AE0006920FFF71DFF41798279491CC9B28A42CA
:104AF00000D04171BDE81040FFF774BF1C110020C9
:104B000010B5052803D34F216920FFF709FF034A99
:104B1000002102EBC000017110BD00001C1100203B
:104B200070B505250E4E0F4C16E0217806EBC1003E
:104B30000279012A08D1427983799A4204D04279D4
:104B4000827156F8310080472078401CC0B2207036
:104B5000052801D3002020706D1EEDB2E5D270BD96
:104B60001C110020DE03002000B50FF057FC40B9F7
:104B70000FF05EFC28B90FF072FC10B90FF083FC47
:104B800008B1024800BD024800BD00000C0500400D
:104B900000E7014010B50FF076FC30B3EFF3108062
:104BA000C8B1002172B6124802680368C2F300124D
:104BB00043F0100303604FF0E023D3F80042D3F832
:104BC00004321C4300D040BF20BF00BF00BF00BF65
:104BD00000BF12B105E00121E4E7026822F01002F3
:104BE0000260002900D062B610BD20BF10BD0000D9
:104BF00010ED00E001490968896808477C00002041
:104C000001490968096908477C00002001480068DB
:104C1000406800477C00002001490968096808478E
:104C20007C000020CF460100C7460100BB460100C2
:104C3000CB460100C346010070B50E4C60780028D9
:104C400017D120780025012806D102202070206984
:104C500010B12069804725612078032809D125708B
:104C60002069002805D06068406980472069804736
:104C7000256170BD8000002010B5084C2078022806
:104C800002D02078032802D1606880688047002025
:104C9000A0706070BDE81040FFF7CEBF800000201C
:104CA00002480078002800D00120704780000020D2
:104CB00038B50446052804D340F23D116820FFF7BB
:104CC0002FFEFFF7B9FF104D0120687028780228E9
:104CD00016D16868C168204688470C4901EB440238
:104CE000527882420DD3A87801280AD011F8140016
:104CF0008DF800008DF801406868016868468847B3
:104D000038BD0120F4E700008000002016150020C7
:104D100005490A78022A04D00A78032A01D0002023
:104D200070474968096908478000002010B558B1EC
:104D300008490A78022A02D00A78032A09D1496868
:104D40004968BDE81040084740F253116820FFF75A
:104D5000E7FD10BD800000200149012088707047E8
:104D60008000002005480178022904D00178032939
:104D700001D0002070474068806900478000002013
:104D8000F34601002B4701001547010003470100CE
:104D90000F470100FD460100F1460100EF4601000A
:104DA000274701001B47010009470100F7460100A2
:104DB000E9460100E1460100E5460100DB4601004D
:104DC000014800680068004794000020014800681E
:104DD0004069004794000020014A1268D2681047D9
:104DE0009400002001490968C96A0847940000201E
:104DF000014800680069004794000020014A1268D9
:104E0000926810479400002001490968496A0847E0
:104E10009400002001490968896A0847940000202D
:104E2000014B1B685B68184794000020014800781C
:104E300070470000DF0300201FB5144C207A8DF866
:104E40000100E0798DF80000A079ADF804006079E8
:104E5000ADF8020068460CF0FFFB08B1902110E0AD
:104E6000E068029002A80CF00DFC08B1942108E063
:104E700007480068039003A813F09BF9002803D0AB
:104E80009821032000F084F91FBD00004411002088
:104E90005C520000FEB5054600680C46C01C20F0C0
:104EA00003002860002000900190029008788DF89F
:104EB000010048788DF8020088788DF80300C878E2
:104EC0008DF8040020798DF80500A07D8DF806008E
:104ED000E07E8DF80800314F207F8DF80900787949
:104EE000164610B120798DF807000EB1002000E0C1
:104EF0002868694600F066FB296808442860A178A4
:104F000041B1638AE27806B1002000F04DFE2968C5
:104F100008442860F87878B1217C69B1387908B103
:104F2000FF2200E025220EB1002000E0286800F0FA
:104F3000CFFE296808442860207968B12868C01C21
:104F400020F003002860227D217906B100200CF0BA
:104F5000CFFF296808442860607D60B12868C01CC4
:104F600020F003002860617D06B1002000F0E0FE23
:104F7000296808442860A07D00280ED02868C01C3D
:104F800020F003002860237EE27DA17D06B1002091
:104F900000F00EFF296808442860FEBD980000203C
:104FA00010B528B1142204490FF0ADFA002010BD4D
:104FB0006FF0150010BD00008052000070B56FF05A
:104FC0002C0598BB304C607808B1A81170BD19B39E
:104FD0006FF01500002AF9D02C4B0C294FD2DFE8D6
:104FE00001F04E06090C1C1F2C3426373A3F10786E
:104FF000187039E01078587036E091780029E5D0C3
:10500000D1780029E2D011781B29DFD351781B29F0
:10501000DCD31068C3F8050026E01068D86023E0F0
:105020001178DA789142D1D399701DE027E0117898
:105030009A789142CAD8D97016E0E17811B1117806
:105040000229C3D3107818740EE0108858820BE040
:105050001078187108E011780229B7D3197503E0A8
:1050600011780829B2D859750122084900200FF09B
:1050700078FBB0F5803F04DB6FF00B0070BD284675
:1050800070BD0121A17070BD980000204411002066
:1050900010B5074C607820B10CF08AFE2078FFF73D
:1050A0002FFD00F0F5FE00F0CFFF0020607010BD76
:1050B0009800002070B50C46050019D0C4B100F06E
:1050C00013F9C0B12846FFF7E1FC0C4D00220C4952
:1050D000287020460FF045FB13F0F5FE00212878DC
:1050E0000CF048FEFFF7A8FE01206870002070BD9C
:1050F0006FF0150070BD4FF0FF3070BD98000020BC
:105100004411002030B589B005000CD0FFF764FCD5
:105110004FF0FF3420B1FFF70BFBB0F5FA7F05D954
:10512000204609B030BD6FF01500FAE7134C144863
:10513000A56000F015FA00206070A070E07020718A
:10514000607120220F4968460FF0DDF92022694680
:105150000D480FF0D8F9EFF3108472B66FF00C0021
:1051600000F0A4FE094800F07BFF18B1AB2103203A
:1051700000F00EF804B962B60020D2E798000020D3
:10518000394E000060520000441100201553000009
:105190000EB572B6154A9568DDB1002203466E461B
:1051A0000A2403E0B0FBF4F0521CD2B20028F9D17B
:1051B000B0540AE0D8B2B0FBF4F7B3FBF4F304FB4D
:1051C0001700521ED2B23030B054002AF2D130460D
:1051D000A847BFF34F8F06480168064A01F4E06113
:1051E00011430160BFF34F8F00BFFDE7980000201F
:1051F0000CED00E00400FA05064810B5817840780F
:10520000014302D04FF0FF3010BD0CF0DFFD002055
:1052100010BD000098000020074810B58178427842
:10522000114302D04FF0FF3010BD0121C170017158
:105230000CF0DEFD002010BD98000020064810B5DF
:1052400081784078014302D04FF0FF3010BD13F059
:1052500096F9002010BD0000980000200100000019
:1052600001010100001B1B03020000004C1D000097
:1052700003001F0002000001000001000000000008
:105280006D90412A38E8AD1729A503383927D7850D
:105290001F85D8E1054A10B5526812B1BDE810402B
:1052A000104792210420FFF773FF000064110020D3
:1052B000054A10B5126812B1BDE8104010478C21A4
:1052C0000420FFF765FF000064110020054A10B5B7
:1052D000926812B1BDE81040104798210420FFF7F2
:1052E00057FF0000641100200548016829B141689A
:1052F00019B1806808B10120704700207047000094
:105300006411002002490DC881E80D00002070479B
:1053100064110020F8B5124C0026256811E00098B1
:10532000022802D003280CD106E0206810B100202A
:10533000266005E028210CE0206868B10120266085
:10534000A847684600F052FE0028E8D0052805D09E
:1053500035210420FFF71CFF2D21FAE7F8BD0000DE
:10536000A40000202DE9FC41294C0546001D04F550
:105370008477A060387858B1BA783C46791C2846C2
:10538000921C0FF0C0F8002020700420BDE8FC81C2
:105390001F4802F0ABFC0646022802D0042E05D0BE
:1053A00026E01B4928460FF00FFA21E02078142848
:1053B00004D10A213E2000F02DF818B120780A28E7
:1053C00005D009E0124928460FF0B0FD0AE005219A
:1053D0003E2000F01FF868B10D4928460FF022FA70
:1053E0000028C7D0A978287800F014F80028C1D088
:1053F0003046CBE7A088ADF8000001A968460FF061
:10540000DEFE0028B6D0AA210820FFF7C1FE00006A
:105410007011002070B50C46054600F04BF80028CE
:1054200002D03E2D01D0012070BD122C06D10648BD
:105430000178022902D040780028F5D02046BDE846
:10544000704000F049B80000E003002001494870B6
:1054500070470000E003002070B50A7882703AB30C
:10546000012A25D81323037000230AE001EB43042B
:1054700000EB4305A678EE706488240A5B1C2C714F
:10548000DBB29342F2D300230BE000BF01EB4305F4
:1054900000EB43042E796671AD882D0A5B1CA57163
:1054A000DBB29342F2D3012101EB8200C0B270BDA6
:1054B000002070BD402803D2401EC1B2054805E05F
:1054C000FF2805D04038C1B2024808300FF058BD5F
:1054D00001207047A8000020401EC1B201480FF013
:1054E0004FBD0000B8000020024902680A61406810
:1054F00048617047A8000020054902680A604068BA
:1055000042F48C220A60034A10434860704700004E
:10551000A8000020F807400207484FF0FF310022A2
:105520000160C90C416000F108011F200A604A6057
:105530000831C1E900027047A800002010B5FFF74C
:10554000EBFF0020FFF782FF12F09DFF04460348A7
:10555000006800B18047204610BD0000C000002058
:105560000149086070470000C0000020022101804E
:105570004180002101716D21417144F29011C1807F
:1055800001498160002070472A38E8AD10B509282C
:1055900004D34FF401711720FFF7FAFD0149085CAD
:1055A00010BD00007C130020054A10B5515C8142FB
:1055B00004D840F2B3211720FFF7EAFDC0B210BDB6
:1055C0007C1300202DE9F84304468A784878024489
:1055D000FF2A02D94FF4D77120E00A78824202D91B
:1055E0004FF4D9711AE00094DCB1002691F80180E3
:1055F00091F802C0087A0CEB0802814610444B7AFD
:105600004A791844C5B2AA4200D91546C878A842BA
:1056100000D90546A70706D040F2CB111720FFF7A7
:10562000B7FD0126E2E71A4F87F8008087F801C02E
:10563000B8700879F8703A7188797871C879B8715A
:1056400087F807903B723146684600F01BF900214D
:105650000B460098C01C20F00300009066B907EBD1
:1056600081021063002005E0D2F830C04CF82030F1
:10567000401CC0B2A842F7D30098491C00EB85003B
:10568000C9B200900929E4D3001BBDE8F8830000EB
:105690007C13002070B50446857900F02FF902468E
:1056A0000C48E17900EB85000EE0036B53F82130E4
:1056B00043B14A1CE271A180006B50F821002060C8
:1056C000002070BD491CC9B29142EED3E1710520A2
:1056D00070BD00007C130020F0B4054611B100201D
:1056E00038B901E00120FBE7012902D0002038B9D8
:1056F00001E00120FBE7022902D0002038B901E0D7
:105700000120FBE7032902D0002038B901E0012085
:10571000FBE7042902D0002038B901E00120FBE7B3
:10572000072902D0002038B901E00120FBE7082951
:1057300002D0002038B901E00120FBE7052902D0A2
:10574000002078B901E00120FBE706290AD00020FB
:10575000002826D0154F00230129387804D00829C5
:1057600004D005E00120F3E7034601E07A788318CE
:1057700007EB810600224FF6FF747F5C0AE0D01829
:10578000D6F830C080B25CF820C0BCF1000F04D065
:10579000521C92B29742F2D820462880A04202D1F1
:1057A0000020F0BC7047F0BC00F034B87C1300203F
:1057B0002DE9F0410746A0F57F400C4643F2020672
:1057C000FF3820D0092C02D30720BDE8F0813846ED
:1057D00000F048F8050016D00C48294650F824205F
:1057E000384690470A48002100EB8406306B40F8A9
:1057F0002710204600F078F802462946F0680FF09E
:105800005DFF0020E1E73046DFE70000405900007F
:105810007C13002070B50E4605460FF089FF58B185
:105820000F4800EB8604206B50F8250038B140F299
:105830008B111720FFF7ACFC4FF4C571F9E7E06856
:1058400000280BD0304600F04FF80146E0680FF01A
:10585000DDFE002802D0216B41F8250070BD00005C
:105860007C13002070B50C4605460FF061FF002840
:1058700005D0034800EB8400006B50F8250070BD94
:105880007C1300202DE9F843164F88460546002476
:105890002868C01C20F003002860204600F024F88F
:1058A000395D4143B8F1000F01D0002000E02868C5
:1058B000009018B100261EB1002002E00126FAE790
:1058C00068460FF0D4FE1EB907EB8401009ACA6047
:1058D0002968641C0844E4B22860092CD8D3BDE8C8
:1058E000F88300007C130020034931F810004FF6C4
:1058F000FC71C01C08407047645900000F4B1878B9
:1059000059780844197A0844C2B29878824200D380
:105910001046D978884200D208461A79904200D2BF
:1059200010465979884200D208469A79904200D2AE
:105930001046D979884200D2084670477C1300206F
:105940006F770100317201007B680100118E010048
:10595000A38E0100A18E0100C58E010037780100E1
:10596000C17701001803700360019000A800B8001F
:1059700014007800580000002DE9FF4F244C064623
:1059800081B020689A46934658B1017AB14203D952
:10599000406850F8260040B143F2020005B0BDE86F
:1059A000F08FA5211820FFF7F3FB194602980FF09E
:1059B000E2FE804658460E990FF0D3FE054608EBEE
:1059C0000500001D87B22068A146394600680FF027
:1059D0001DFE04001AD0678025802946201D0E9DDB
:1059E00007465A46092300950FF082FD208841465C
:1059F00038440A23029ACDF800A00FF079FDD9F8B7
:105A00000000406840F826400020C7E70420C5E7B2
:105A1000C400002070B5144C23688BB1197A814200
:105A200012D95A6852F8201071B1002542F820505E
:105A30004A8818680FF042FE216800200A7A0CE0BC
:105A4000C6211820FFF7A4FB43F2020070BD4B688B
:105A500053F8203033B9401CC0B28242F7D80868EE
:105A60000FF021FE002070BDC40000202DE9F041A0
:105A70000D46040090464FF0000606D00027A00710
:105A800005D086211820FFF783FB0127F7E7CDB16A
:105A9000114600200FF0EBFD0C3000EB85068FB9AE
:105AA0000A4F04F10C00AA003C602572606000EB14
:105AB00085002060002160680EF09FFD4146386837
:105AC0000FF0D5FD3046BDE8F0810000C400002095
:105AD000094910B502460968002049B10B7A934282
:105AE00005D9496851F82210002900D0081D10BDC1
:105AF000EC211820FFF74CFBC40000200A4910B528
:105B000002460968002059B10B7A934207D94968C7
:105B100051F82210002902D031F8040B084410BDBE
:105B2000FA211820FFF734FBC40000202DE9F041D2
:105B30001C4E456804460022A1B1012060707088A7
:105B40008308002004EB400104EB80060A830B84E9
:105B500000FB035171602118401C0A750428F1D321
:105B6000BDE8F0816270002004EB40010A830A84E2
:105B700004EB80014A602118401C0A750428F3D305
:105B800070880FF077FE074670880FF07AFE656028
:105B900020842918A1606784E560A0842161E784DE
:105BA000DEE70000C80000202DE9F04768B10026BC
:105BB0001144DFF89C80CFB2002488F80070810780
:105BC00005D04E210920FFF7E3FA0126F0E71F2B4D
:105BD00004D84FF6FF7101EA830509E05900FF2B55
:105BE0000CD903F1FF02B2EB430F00D211468DB284
:105BF0004FF6FC71ED1C0D4036B109E07C22B2EB92
:105C0000430FF4D37C21F2E7C8F80400A8F802504F
:105C100007EB870104EBC10200214FF001090FE0FF
:105C20005EB9D8F8044001EB810300EB020C04F8E4
:105C3000339004EBC303C3F804C0491C2A44C9B21F
:105C4000B942EDD3D21D22F00700BDE8F087000075
:105C5000C800002070B511480024214602780CE0ED
:105C6000456801EB810315F8333023B101EB810165
:105C700005EBC10403E0491CC9B29142F0D344B121
:105C80000025A57001212046FFF750FF2570204612
:105C900070BDA9210920FFF77BFA0000C800002091
:105CA000044810B5408884080FF0EBFD844200D30F
:105CB000204610BDC8000020014840787047000011
:105CC000D00000200148406870470000D00000204C
:105CD0002DE9F8430C46074616462E2110460D4680
:105CE00022460FF04EFC804657B1384641463246B8
:105CF0002B4600940FF0FCFB03484760047046708D
:105D00004046BDE8F8830000D000002002484278F9
:105D100001784068FFF7DCBFD0000020034B002172
:105D20001878C0EBC00258680EF067BCD80000209D
:105D300010B50C4610B1002212B10CE00122FBE7B5
:105D4000810703D020214120FFF722FA0349486050
:105D50000C70FFF7E3FFC4EBC40010BDD8000020B7
:105D600010B50C460521FFF71FFC1CB13521192089
:105D7000FFF70EFA04490A784B885A438B888968E2
:105D800000FB0320084410BDE000002010B50C46C5
:105D90000521FFF709FC1CB125211920FFF7F8F9AF
:105DA00002498A68498800FB012010BDE0000020FC
:105DB0002DE9F84F884604461E469146FF200321F0
:105DC0000FF0DFFBC01C4FF6FC7A00EA0A07002543
:105DD0003EB1FF200D2132460FF0D3FBC01C00EA7C
:105DE0000A053CB3A00703D04E211920FFF7D0F9D4
:105DF0001348846080F8008047808580002417E085
:105E000000212046FFF7C2FF3946FF220323CDF8C9
:105E100000900FF06DFB4EB100212046FFF7A0FF70
:105E20002946FF220D2300960FF062FB641CA4B2EA
:105E30004445E5D3781900FB08F0BDE8F88F000071
:105E4000E000002030B50D4901204860821EC1F8F5
:105E500008230B4988600023C1F80032C1F80823E9
:105E6000084C2360251D28608860C1F80823236042
:105E7000286006490448086030BD000000E000408A
:105E800000F0004000F500400000F63F08F501403A
:105E900010B5FFF7D7FF0FF0C9FD034901480860AF
:105EA00010BD00000000F63F08F5014010B50446A3
:105EB000FFF7C8FF0FF0BAFD00F088F80549044865
:105EC0000860204600F0B8F8BDE8104000F0DCB8EB
:105ED0000000F63F08F501402DE9F84F82463848AA
:105EE0000EF07AFADFF8D8B028B101260BF10100E4
:105EF000FF21017000E000264FF48075314C4FF017
:105F000000082F1D01216160C4F80081C4F80481DC
:105F1000C4F804A52160DFF8B0901CE0D9F80000B7
:105F2000C00618D50E200FF090FDEFF31080009002
:105F300072B603212046C4F8041329460FF092FDDF
:105F400030B9394620460FF08DFD08B9FEF722FE24
:105F5000009800B962B6294620460FF083FD28B9A3
:105F6000394620460FF07EFD0028D7D0394620461E
:105F70000FF078FD0028C5D106BB9BF801108DF805
:105F80000010009900919DF8001009B1012500E072
:105F900000250BF1010080F800800320C4F80803FD
:105FA000C4F80481C4F800810E200FF04EFD0448AF
:105FB0000EF029FA15B11120BDE8F88F0020FBE79B
:105FC000E203002000E0004010ED00E010B50648BC
:105FD0000EF015FA18B127211D20FFF7D9F8024855
:105FE0000021417010BD0000E203002070B511498E
:105FF0000A68EAB100231D4601244A68521C4A601F
:106000000C2A00D34D600E7904FA06F20E6816428F
:106010000BD0EFF3108372B60C6894430C6003B995
:1060200062B649680160002070BD5B1C0C2BE4D394
:10603000052070BDEC000020024800210160416095
:1060400070470000EC00002010B5044C2078FF28B9
:1060500003D0FEF755FDFF20207010BD000000208A
:1060600010B5084C617809B10F2010BDFEF70EFD88
:106070002070FF2801D0002010BD78211F20FFF7DD
:1060800087F8000000000020014900204870704798
:106090000000002005498A8E824218BF7047002008
:1060A00081F832004FF6FF7088867047D0140020C8
:1060B0000648074A818E5288914205D190F83200F5
:1060C00000281CBF0020704701207047D01400201A
:1060D000CC0300200149488070470000CC03002019
:1060E0000848094A818E5288914209D14FF6FF71C2
:1060F000818610F8321F19B100210170012070470C
:1061000000207047D0140020CC030020074901F183
:10611000320091F83220012A04BF0020704701228A
:10612000027003480088888610467047D01400200B
:10613000CC0300200749084B8A8E5B889A4206D11F
:1061400091F83220002A1EBF016001207047002014
:1061500070470000D0140020CC03002009498A8E2B
:10616000A2F57F43FF3B03D0002101600846704742
:1061700091F832200349012A1ABF01600120002052
:1061800070470000D01400200149088070470000CB
:10619000CC0300200A4A10B1012807D00EE0507845
:1061A00060B1D2F802000860D08804E0107828B10D
:1061B00090680860908988800120704700207047AF
:1061C000E4030020094A012340B1012818BF7047A9
:1061D00013700868906088889081704753700868D1
:1061E000C2F802008888D08070470000E4030020D5
:1061F000064910B1012803D006E0487810B903E041
:10620000087808B10120704700207047E40300209F
:1062100001490877704700006A0B00200148C078E8
:1062200070470000F400002001480079704700002A
:10623000F40000200149012088717047F40000201B
:106240002DE9F84FF54DDDF828C02C78002C65D1EC
:10625000002A1CBF002BBCF1000F5FD0C5F81CC08A
:10626000C5E90E014FF00000C5E90523A87168716A
:10627000E870A8702871DFF8A883A881E881D8F8B1
:10628000040000F1A00604460CF01CFD0BF0FEFF1C
:1062900094F972000CF0B2FD206A0DF001F8A069CB
:1062A0000CF0F4FF96F82B000DF034F898F800008D
:1062B00041F64C59002836D00420FEF7F9FC6069FD
:1062C000484528BF962003D201200CF0C7FF4D207F
:1062D0000CF012FCD8F8040090F89602002818BFC1
:1062E0000CF0FAFB94F86F1001200CF043FA002830
:1062F00008BFBDE8F88FCB480CF07CFB2088FFF787
:10630000FDFB28632088FFF7E3FB686394F87B00BC
:106310008DF800009DF8000070BB1BE040F21D11DD
:106320002720FEF735FF0320FEF7C2FC60694845D1
:1063300028BF962003D201200CF090FF4D200CF0D6
:10634000DBFB94F86E1000200CF014FA0028D2D178
:10635000BDE8F88F606F78B1B6F84200B189884225
:106360000AD1B4F8781001220844A6F8420094F843
:106370007A00616FFDF794F906F18001AA4891E86F
:106380000E1000F5847787E80E10D6F89010C0F84C
:106390002111D6F89410C0F82511D8F8040001276F
:1063A00000F1A00290F8B51027291EBF282992F805
:1063B00016C0BCF1270F0BD04FF008024FF00203BC
:1063C000222918BF23292DD0BCF1250F51D080E000
:1063D00098F80010002990F86E1012D090F846033B
:1063E00000287AD0082918BF04296FD0082818BFC0
:1063F00004286BD0012918BF012856D04FF00201A4
:106400006BE090F8D202002867D0082918BF042951
:106410005CD0082818BF042858D0012918BF0128CB
:1064200043D0EBE7BCF1250F23D098F80010E9B377
:1064300090F86E1090F8560110F0040F18BF104637
:106440000CD0082918BF042940D0082818BF0428F8
:106450003CD0012918BF012827D0CFE710F0010F49
:1064600018BF3846EDD110F0020F18BF1846E8D11A
:1064700033E098F80010C9B190F86E1090F856C14A
:1064800090F867000CEA000010F0040F18BF1046E7
:1064900010D0082918BF042918D0082818BF0428CC
:1064A00014D0012918BF0128A8D100E011E04FF055
:1064B000010112E010F0010F18BF3846E9D110F0C9
:1064C000020F18BF1846E4D107E0FFE74FF00801BC
:1064D00003E090F86E100429F8D0A08F11F00C0F93
:1064E00018BF4FF429600FF08BFC218F814238BF19
:1064F0000846287294F86F10B4F8420096F81BB062
:10650000B4F840A0082930D00FF07AFCBBF1000F9E
:1065100004BF001D80B2824538BF5046C2B26A72C5
:10652000F17E002914BF042000201044E87198F87F
:1065300000303E48EBB1E9B30776D6E91E13C0E957
:10654000041394F86F100120012908BF00233DD0E7
:10655000022908BF012339D0042908BF032335D0FD
:10656000082908BF022331D021E004210FF048FCA4
:10657000CCE7B17E31B30776D6E91C12C0E904122C
:10658000606948452CBF0020042094F86E10012952
:1065900008BF002312D0022908BF01230ED004290E
:1065A00008BF03230AD0082908BF022306D040F2FF
:1065B0001A4100E00DE00620FEF7EAFDFB221B4930
:1065C0000BF09CFD012000F099FC05E017490BF051
:1065D00095FD012000F024FC15480068032818BF31
:1065E0000B2815D010484FF00001C0F86211C0F818
:1065F0006611C0F86A11A0F86E1100F5B170B1898A
:1066000041802188018096F82B100171BDE8F88F38
:106610004FF4EC714FF02700FEF7BAFDF4000020B4
:106620002C0100202C710000080A0020100B002013
:10663000501500402DE9F0474B4D06008A46494869
:10664000696A82B0406891F8019000F1A0044FF0AF
:10665000000714BF012E6F7068784FF0010850B129
:1066600001283AD002285CD0032870D040F21D41A6
:106670002720FEF78DFD012E1CD0A86A00284BD0E4
:106680006A89D21C0DF03FFFA86A686201AA6946B8
:10669000686B0EF0C8FE00980EF083FECAF800008A
:1066A00001224946686B0EF033FE022E04BF02B091
:1066B000BDE8F087D4E91E02411C42F10000C4E9A4
:1066C0001E10207C012803D1277402B0BDE8F0879A
:1066D00084F8108002B0BDE8F087012E11D0A86ABE
:1066E000D0B16A89D21C0DF00EFFA86A6862002240
:1066F0004946686B0EF00CFE022E04BF02B0BDE8E6
:10670000F087D4E91E02411C42F10000C4E91E10CA
:10671000207C0128DCD1D7E740F263412720FEF737
:1067200037FD012E07D0686B0EF06CFF022E04BF00
:1067300002B0BDE8F087D4E91E10491C40F100000A
:10674000C4E91E10207C0128C2D1BDE7FFE7012E5D
:1067500004BF02B0BDE8F087686B02B0BDE8F04747
:106760000EF050BF2C010020F40000200248C08928
:10677000C0F3802070470000F400002038B51A48AC
:10678000017800F1380449B12178007849B1022834
:106790000ED04FF4FA712720FEF7FAFC00F0A8FAA9
:1067A0000BE0012809D04FF4F8712720FEF7F0FC28
:1067B0006068D0F8A8020CF033F9606890F87B109C
:1067C0008DF800109DF80010002918BF38BD416FEA
:1067D000002908BF38BD90F87A00BDE83840002293
:1067E0001146FCF75DBF0000F40000200020487057
:1067F0002D2008700648D0F870214A60D0F8742126
:106800008A60D0F87821CA60B0F87C0108827047AD
:10681000080A0020012984BF0120704770B51B4C75
:106820000546A169884700282CD0607950BB04F147
:1068300038000178002908BF012D01D021B31DBB0C
:106840001348027812F0100F06D1E06A007810F0B9
:10685000100F08BF012001D04FF00000A36A23B938
:10686000638913B112F0100F0CD000291CBF217BDB
:1068700011F0020F03D0216AC978022904D0A1893E
:10688000084301D0012070BD002070BDF40000203D
:10689000040100202DE9F34FDFF82883824683B0FE
:1068A000D8F804004FF00009A8F1380500F1A0075E
:1068B0008DF80090CDF80890CDF8049028784E46D9
:1068C000022804D040F2EE412720FEF761FCA87BAD
:1068D00010F0400F07D140206A6900219047E889F5
:1068E00040F04000E881F87EBAF1000F00F0D3805C
:1068F0004FF0010BA0B10BF007FD0BF0E1FC78B9F4
:10690000686A417861B10078397CC0F3C000884280
:1069100006D185F802B000F0EBF905B0BDE8F08FC4
:10692000686A41786981002908BFAE6203D0686B4C
:106930000EF035FEA862E88940F48070E881686A4C
:10694000F97B0078C0F38000884208BF4FF001094E
:1069500047D0D8F8040002A900F1A00490F8AE00D6
:1069600000283AD002280BD1286B0EF0A9FC002891
:106970004AD0D4E91C10491C40F10000C4E91C10A5
:10698000A67398F8000000281CBFA07A002809D040
:10699000A672AA89314642F01002AA816A694FF0B4
:1069A00010009047607A90B16672FFF799FB88B348
:1069B000AA89082042F00802AA816A69002190474A
:1069C000D4E91C10491C40F10000C4E91C10E07B14
:1069D00001280CBFE67384F80FB0E88940F48060AA
:1069E000E881686A397C0078C0F3C000884222D10F
:1069F00001F0D8FCE0B1686A017801F003010129D7
:106A000018BF02290BD013E040F2B9314FF0270034
:106A1000FEF7BEFB4FF474712720FEF7B9FB4078F8
:106A2000E979884204D9687940F01000687102E081
:106A3000684600F0A5F9B87EC8B398F80010D8F8F9
:106A4000040000290CBF012200225F490A76D7E921
:106A50001C23C1E90423416941F64C52914234BFE1
:106A60004FF0040C4FF0000C90F86E00012808BFA6
:106A700000231DD0022808BF012319D0042808BF15
:106A8000032315D0082808BF022311D040F21A4171
:106A90000620FEF77DFB002818BF0BF02FFCE878DE
:106AA000401CE870E88940F40070E881C3E704E026
:106AB000FB22454960460BF021FB444C04984FF003
:106AC000000B20B9E9780120FFF7A4FE58B30CF0C1
:106AD000CBFB9DF8000018B101A90020FFF7AAFD2B
